:100000000C94FD000C94A1180C94C8180C942501B4
:100010000C9425010C9425010C9425010C94B60D2B
:100020000C9425010C9425010C9425010C942501B8
:100030000C9425010C9425010C9425010C942501A8
:100040000C946A190C9425010C942B010C94580102
:100050000C9425010C9425010C9425010C94250188
:100060000C9425010C9425014E414E494E4954599A
:10007000494E46CDCCCC3D0AD7233C17B7D1387773
:10008000CC2B329595E6241FB14F0A000020410089
:1000900000C84200401C4620BCBE4CCA1B0E5AAED3
:1000A000C59D7400407A10F35A00A0724E180900E2
:1000B00010A5D4E80000E87648170000E40B5402CD
:1000C0000000CA9A3B000000E1F505000080969808
:1000D00000000040420F000000A086010000001058
:1000E0002700000000E8030000000064000000009A
:1000F000000A00000000000100000000002C76D87B
:1001000088DC674F0823DFC1DFAE59E1B1B796E560
:10011000E3E453C63AE651997696E8E6C28426EBC4
:10012000898C9B62ED407C6FFCEFBC9C9F40F2BAD7
:10013000A56FA5F490055A2AF75C936B6CF9676D6F
:10014000C11BFCE0E40D47FEF520E6B500D0ED90C4
:100150002E0300943577050080841E080000204E91
:100160000A000000C80C333333330F986E1283112A
:1001700041EF8D2114893BE65516CFFEE6DB18D101
:10018000844B381BF77C1D901DA4BBE424203284D3
:10019000725E228100C9F124ECA1E53D2702000036
:1001A0000008000201000003040700000000000036
:1001B0000000010204081020408001020408102001
:1001C00001020408102004040404040404040202CC
:1001D00002020202030303030303000000002300E2
:1001E0002600290000000000250028002B00000048
:1001F0000000240027002A00F61C11241FBECFEFA8
:10020000D8E0DEBFCDBF11E0A0E0B1E0E2E3F1E570
:1002100002C005900D92A434B107D9F722E0A4E4FE
:10022000B1E001C01D92A630B207E1F710E0CDEFBA
:10023000D0E004C02197FE010E94A01DCC3FD10751
:10024000C9F70E94D51C0C9497280C9400000E94BA
:10025000F41C0E94F41C2F932FB72F938F939F931E
:10026000EF93FF93E0915401F09155018081E0916B
:100270005A01F0915B0182FD19C0908180915D016E
:100280008F5F8F7320915E01821741F0E0915D01D5
:10029000F0E0EC5BFE4F958F80935D01FF91EF9155
:1002A0009F918F912F912FBF2F9118958081F6CF1D
:1002B0001F920F920FB60F9211242F933F934F93DB
:1002C0005F936F937F938F939F93AF93BF93EF93BE
:1002D000FF9384E491E00E94D201FF91EF91BF91DE
:1002E000AF919F918F917F916F915F914F913F91CE
:1002F0002F910F900FBE0F901F90189584E491E0FE
:100300000E9488019C0181E0232B09F480E008957C
:10031000FC01818D228D90E0805C9F4F821B9109B2
:100320008F7399270895FC01918D828D981731F074
:10033000828DE80FF11D858D90E008958FEF9FEF7E
:100340000895FC01918D828D981761F0828DDF01F7
:10035000A80FB11D5D968C91928D9F5F9F73928FB8
:1003600090E008958FEF9FEF0895FC01538D448D29
:10037000252F30E0842F90E0821B930B541710F050
:10038000CF960895019708958EE791E0892B49F063
:1003900080E090E0892B29F00E947E0181110C946D
:1003A00000000895FC01848DDF01A80FB11DA35A40
:1003B000BF4F2C91848D90E001968F739927848F85
:1003C000A689B7892C93A089B1898C9183708064A8
:1003D0008C93938D848D981306C00288F389E02D49
:1003E00080818F7D80830895CF93DF93EC01888D8A
:1003F00081110FC0DF91CF9108950FB607FC0DC09A
:100400008C9185FF08C0808185FF03C0CE010E94CA
:10041000D201AA89BB89E889F9898C9185FDEDCF44
:10042000808186FFEACFE6CFEF92FF920F931F9372
:10043000CF93DF93EC01F62E81E0888F9B8D8C8D1E
:1004400098131AC0E889F989808185FF15C09FB784
:10045000F894EE89FF896083E889F9898081837047
:10046000806480839FBF81E090E0DF91CF911F91F6
:100470000F91FF90EF9008950B8D10E00F5F1F4FCD
:100480000F731127E02E8C8D8E1579F08B8DFE0168
:10049000E80FF11DE35AFF4FF0829FB7F8940B8FDE
:1004A000EA89FB8980818062DCCF0FB607FCEBCF45
:1004B000E889F989808185FFE6CFCE010E94D201CB
:1004C000E2CFCF92DF92EF92FF921F93CF93DF9311
:1004D000EC016A017B01122FE889F98982E08083AF
:1004E000C11481EED806E104F104A1F060E079E0E6
:1004F0008DE390E0A70196010E94541D215031091F
:10050000410951095695479537952795211580E161
:10051000380798F0E889F989108260E874E88EE17C
:1005200090E0A70196010E94541D21503109410914
:1005300051095695479537952795EC85FD8530836C
:10054000EE85FF852083188EEC89FD891083EA896A
:10055000FB89808180618083EA89FB898081886052
:100560008083EA89FB89808180688083EA89FB89AE
:1005700080818F7D8083DF91CF911F91FF90EF90DD
:10058000DF90CF900895CF93DF93EC01E881F9815C
:100590000680F781E02D0995EA89FB8980818F7EAD
:1005A0008083EA89FB898081877F8083EA89FB8950
:1005B00080818F778083EA89FB8980818F7D80832A
:1005C0008A8D898FDF91CF9108958F929F92AF92FC
:1005D000BF92CF92DF92EF92FF920F931F93CF9330
:1005E000DF938C01D62FC72F4C0182E0880E911C1F
:1005F0005801E5E0AE0EB11CD12CC12CF401619183
:100600004F014AE050E08D2F9C2F0E9481057C0114
:100610006EE28D2F9C2F0E942104E80EF91ECE0C55
:10062000DF1C8A149B0451F74AE050E0F801658111
:100630008D2F9C2F0E9481058C0D9D1DDF91CF91E8
:100640001F910F91FF90EF90DF90CF90BF90AF90F0
:100650009F908F900895FC0187E291E091838083C1
:10066000128213821482158208950F93FC0187E28F
:1006700091E09183808362834383248305830F9178
:100680000895FC0187E291E0918380834283538344
:10069000648375830895FB01DC0187E291E08D930B
:1006A0009D9384E001900D928A95E1F70895CF9390
:1006B000DF93FC01DB0120E090E080E06AE03D9107
:1006C000311107C02330C1F4858381E0DF91CF91E0
:1006D000089540ED430F4A3088F4689FA001699F58
:1006E000500D1124CA01C097830F911D37FD9A95B3
:1006F0008F3F910521F318F380E0E8CF3E32E1F718
:100700002330D1F3EF01C20FD11D8A832F5F80E028
:1007100090E0D5CFFB01DC01129624E001900D9210
:100720002A95E1F70895FC0142835383648375831E
:1007300008959B01BC016E5F7F4F44E050E0C9010A
:100740000E943B239C0181E0232B09F080E0089567
:10075000009711F481E090E00C941E200C94A80303
:100760000C94A8030C94AE03CB010895CB0108951B
:100770000C94B4200C94B8030C94B8030C94BA03F2
:100780000C94B8030C94BA0308950895CF92DF92A5
:10079000EF92FF920F931F93CF93DF937C016A0137
:1007A00010E000E00C151D0551F4C801DF91CF9158
:1007B0001F910F91FF90EF90DF90CF900895EB0184
:1007C000D701ED91FC910190F081E02D6991C70175
:1007D0000995892B51F30F5F1F4FBE01E3CFEF92B5
:1007E000FF920F931F93CF93DF938C017B01D0E097
:1007F000C0E0F701EC0FFD1F6491662361F0D801A2
:10080000ED91FC910190F081E02DC8010995892BB3
:1008100011F02196EECFCE01DF91CF911F910F9174
:10082000FF90EF900895DC01FB01448155816081C8
:100830007181ED91FC910280F381E02D09940C947B
:10084000281DDC01ED91FC910190F081E02D0994CF
:10085000382F292FCB01DB01ED91FC910190F08124
:10086000E02D632F722F099469E271E00C94281D2A
:100870000F931F93CF93DF93D82FC92F0E94EF03BD
:100880008C018D2F9C2F0E943404800F911FDF91CB
:10089000CF911F910F9108950F931F93CF93DF93E3
:1008A000D82FC92F0E9413048C018D2F9C2F0E94DA
:1008B0003404800F911FDF91CF911F910F91089504
:1008C0000F931F93CF93DF93D82FC92F0E94281D1A
:1008D0008C018D2F9C2F0E943404800F911FDF917B
:1008E000CF911F910F9108950F931F93CF93DF9393
:1008F000D82FC92F0E9421048C018D2F9C2F0E947C
:100900003404800F911FDF91CF911F910F910895B3
:100910000F931F93CF93DF93D82FC92F0E942804E2
:100920008C018D2F9C2F0E943404800F911FDF912A
:10093000CF911F910F9108956F927F928F929F9206
:10094000AF92BF92CF92DF92EF92FF920F931F93DD
:10095000CF93DF93CDB7DEB7A1970FB6F894DEBF84
:100960000FBECDBF3C01142F052F962E872E19A246
:10097000223008F42AE05E0181E2A80EB11CC22EEA
:10098000D12CF12CE12C612F702F892D982DA701EE
:1009900096010E94541D812F902FA92DB82D122F42
:1009A000032F942E852E6A3014F5605DF501629355
:1009B0005F018C159D05AE05BF0528F7BF01C3017A
:1009C0000E94281DA1960FB6F894DEBF0FBECDBFC2
:1009D000DF91CF911F910F91FF90EF90DF90CF901B
:1009E000BF90AF909F908F907F906F900895695CBB
:1009F000DDCFCF92DF92EF92FF920F931F93CF93B1
:100A0000DF93EC016A017B01C901892B81F4E88144
:100A1000F9810190F081E02D642FCE01DF91CF911B
:100A20001F910F91FF90EF90DF90CF9009942A30A3
:100A30003105F1F42AE0F7FE1BC06DE2CE010E9401
:100A400021048C0144275527BA014C195D096E0910
:100A50007F092AE0CE010E949C04800F911FDF9144
:100A6000CF911F910F91FF90EF90DF90CF9008955D
:100A7000B701A601CE01DF91CF911F910F91FF9099
:100A8000EF90DF90CF900C949C049A01AB01770F0C
:100A9000660B770B0C94F9040F931F93CF93DF939E
:100AA000D82FC92F0E9445058C018D2F9C2F0E94A5
:100AB0003404800F911FDF91CF911F910F91089502
:100AC0000F931F93CF93DF93D82FC92F0E94F90460
:100AD0008C018D2F9C2F0E943404800F911FDF9179
:100AE000CF911F910F910895F901EF2B41F4DC0193
:100AF000ED91FC910190F081E02D642F09940C940C
:100B00009C049A01462F50E070E060E00C9474055C
:100B10000F931F93CF93DF93D82FC92F0E94810586
:100B20008C018D2F9C2F0E943404800F911FDF9128
:100B3000CF911F910F9108959A01AB0170E060E091
:100B40000C9474050F931F93CF93DF93D82FC92F65
:100B50000E949C058C018D2F9C2F0E943404800FD5
:100B6000911FDF91CF911F910F9108950F931F93C4
:100B7000CF93DF93D82FC92F0E9474058C018D2F3E
:100B80009C2F0E943404800F911FDF91CF911F9101
:100B90000F9108957F928F929F92AF92BF92CF92C2
:100BA000DF92EF92FF920F931F93CF93DF93CDB716
:100BB000DEB72A970FB6F894DEBF0FBECDBF898788
:100BC0009A87CA01DB0189839A83AB83BC83B22EE7
:100BD0009A01AB01CB01B9010E94EC1F6CE271E0FC
:100BE00081112FC089819A81AB81BC81BF778D83B0
:100BF0009E83AF83B8872FEF3FEF4FE75FE7BC01DE
:100C0000CD010E94EC1F81110EC02FEF3FEF4FE787
:100C10005FE76D817E818F8198850E94221E60E34F
:100C200071E0181674F02FEF3FEF4FE75FE4698132
:100C30007A818B819C810E947A1F1816CCF464E320
:100C400071E089859A852A960FB6F894DEBF0FBEAB
:100C5000CDBFDF91CF911F910F91FF90EF90DF906B
:100C6000CF90BF90AF909F908F907F900C94281D55
:100C70002FEF3FEF4FE75FEC69817A818B819C8199
:100C80000E94221E87FDDBCF20E030E0A9016981B0
:100C90007A818B819C810E94221E912C812C87FF5E
:100CA0000FC06DE289859A850E9421044C018981DB
:100CB0009A81AB81BC81B05889839A83AB83BC8312
:100CC00010E060E070E080E09FE3B11256C029813F
:100CD0003A814B815C8169837A838B839C836981B0
:100CE0007A818B819C810E94B61D6B017C01698396
:100CF000DA828B83FC8269817A818B819C810E945C
:100D0000991E762EA72E8C010E94C81E9B01AC0155
:100D100069817A818B819C810E94B51DF62EE72E18
:100D2000D82EC92E2AE0472D5A2DB80189859A85DB
:100D30000E949C048C01080D191DBB2049F06EE235
:100D400089859A850E942104080F191FB11025C0BA
:100D5000C8012A960FB6F894DEBF0FBECDBFDF9153
:100D6000CF911F910F91FF90EF90DF90CF90BF90A8
:100D7000AF909F908F907F90089520E030E040E208
:100D800051E46D837E838F8398876D817E818F810F
:100D900098850E94271E1F5F98CF20E030E040E238
:100DA00051E4F982EA82DB82CC8269817A818B818B
:100DB0009C810E947F1F762EA72E4C0169837A8327
:100DC0008B839C8269817A818B819C810E94991E90
:100DD0006B014AE050E089859A850E949C05080FC6
:100DE000191FC601B0E0A0E089839A83AB83BC835E
:100DF000B601CD010E94C81E9B01AC017982AA8276
:100E00008B829C8269817A818B819C810E94B51D35
:100E1000F62EE72ED82EC92EBA9498CF0C94CA0578
:100E20000F931F93CF93DF93D82FC92F0E94CA052A
:100E30008C018D2F9C2F0E943404800F911FDF9115
:100E4000CF911F910F910895CF93DF93CDB7DEB768
:100E50002A970FB6F894DEBF0FBECDBF8D839E8359
:100E60000E94B2196F83788789879A87AD81BE8186
:100E700018966D937D938D939C931B97AD81BE8146
:100E8000ED91FC9111970284F385E02DCD01099538
:100E900097FF21C00E94B21969837A838B839C8358
:100EA000ED81FE8180859185A285B38529813A8176
:100EB0004B815C81281B390B4A0B5B0BDA01C901A2
:100EC000448155816681778184179507A607B70706
:100ED000A8F28FEF9FEF2A960FB6F894DEBF0FBEF1
:100EE000CDBFDF91CF910895CF93DF93CDB7DEB71C
:100EF0002A970FB6F894DEBF0FBECDBF8D839E83B9
:100F00000E94B2196F83788789879A87AD81BE81E5
:100F100018966D937D938D939C931B97AD81BE81A5
:100F2000ED91FC9111970484F585E02DCD01099593
:100F300097FF21C00E94B21969837A838B839C83B7
:100F4000ED81FE8180859185A285B38529813A81D5
:100F50004B815C81281B390B4A0B5B0BDA01C90101
:100F6000448155816681778184179507A607B70765
:100F7000A8F28FEF9FEF2A960FB6F894DEBF0FBE50
:100F8000CDBFDF91CF910895FF920F931F93CF9321
:100F9000DF93EC018B01F42ECE010E94740797FDC4
:100FA0001DC08D329105D1F09C01205331092A30AA
:100FB0003105A0F0FF2019F08E32910579F0013053
:100FC000110551F00230110589F48D30910571F051
:100FD0005CF40997029750F08FEF9FEFDF91CF916C
:100FE0001F910F91FF9008958097B1F7E881F981E3
:100FF0000284F385E02DCE010995CECFFC01448318
:101000005583668377830895BF92CF92DF92EF92E4
:10101000FF920F931F93CF93DF9300D000D000D0A7
:10102000CDB7DEB78C01498340E00E94C407FC01C4
:10103000C12CD12C760197FD4FC0B12C2981022EF5
:10104000000C330B3E832D834D815E814E175F076D
:1010500029F1ED32F10509F451C0CF01C0970A978B
:10106000E8F4AAE0B0E0A70196010E94951D69830B
:101070007A838B839C83CF01FF0FAA0BBB0B298143
:101080003A814B815C81820F931FA41FB51F6C01B5
:101090007D0130E3C31AD108E108F108D801ED91D0
:1010A000FC910284F385E02DC8010995C8010E94D6
:1010B0007407FC01C0970A9738F22D813E812E17E4
:1010C0003F0711F2BB2041F0F094E094D094C0941B
:1010D000C11CD11CE11CF11CC701B60126960FB63C
:1010E000F894DEBF0FBECDBFDF91CF911F910F915E
:1010F000FF90EF90DF90CF90BF900895BB24B39402
:10110000CDCF6F927F928F929F92AF92BF92CF92EC
:10111000DF92EF92FF920F931F93CF93DF9300D054
:1011200000D000D0CDB7DEB78C01498341E00E94EA
:10113000C407FC0197FDACC0812C912C80E8A82E3F
:101140009FE3B92EC12CD12C7601712C612C298101
:10115000022E000C330B3E832D834D815E814E1792
:101160005F07D9F1ED32F10509F48CC0EE32F105DB
:1011700009F48BC0CF01C0970A9778F5AAE0B0E0D8
:10118000A70196010E94951D69837A838B839C83B6
:10119000CF01FF0FAA0BBB0B29813A814B815C81E8
:1011A000820F931FA41FB51F6C017D0130E3C31A8A
:1011B000D108E108F108772081F02DEC3CEC4CECF3
:1011C0005DE389829A82AB82BC8269817A818B815C
:1011D0009C810E947F1F4B015C01D801ED91FC9125
:1011E0000284F385E02DC8010995C8010E947407A7
:1011F000FC01C0970A9708F4B0CFEE32F10519F45C
:10120000772009F4AACF2D813E812E173F0709F4DC
:10121000A4CF662041F0F094E094D094C094C11C17
:10122000D11CE11CF11CC701B6010E94CA1E772027
:1012300061F09401A50169837A838B839C83698122
:101240007A818B819C810E947F1F69837A838B8343
:101250009C8369817A818B819C8126960FB6F89454
:10126000DEBF0FBECDBFDF91CF911F910F91FF90D9
:10127000EF90DF90CF90BF90AF909F908F907F9036
:101280006F90089566246394A8CF77247394A5CFB4
:1012900060E070E080E090E0D8CFCF92DF92EF92F4
:1012A000FF920F931F93CF93DF93D82EC92E162F43
:1012B000072F7A01D0E0C0E0CE15DF0551F4CE0152
:1012C000DF91CF911F910F91FF90EF90DF90CF9022
:1012D00008958D2D9C2D0E94240797FDF0CFE12FBE
:1012E000F02F819321961E2F0F2FE6CFAF92BF9242
:1012F000CF92DF92EF92FF920F931F93CF93DF93E2
:10130000B82EA92E142F052F7901D0E0C0E0C62EEB
:10131000660FDD08CE15DF0561F4CE01DF91CF91B8
:101320001F910F91FF90EF90DF90CF90BF90AF9003
:1013300008958B2D9A2D0E94240797FDEECFC81695
:10134000D90659F3E12FF02F819321961E2F0F2FED
:10135000E1CF0F931F93CF93DF93D82FC92F162F71
:10136000072F6BE271E00E946D0F812F902F0E947A
:101370002407BC018D2F9C2F77FF05C0DF91CF91F3
:101380001F910F9108950E94DF11EFCFEF92FF920E
:101390000F931F93CF93DF93D82FC92FF62EE72EED
:1013A000042F6BE271E00E946D0F8F2D9E2D0E9425
:1013B0002407BC01002E000C110B8D2F9C2F77FDF4
:1013C00003C00617170739F4DF91CF911F910F91D2
:1013D000FF90EF9008950E94DF118F2D9E2D0E94A7
:1013E0002407BC01EACF2F923F925F926F927F92C7
:1013F0008F929F92AF92BF92CF92DF92EF92FF9225
:101400000F931F93CF93DF934C01EB0126E0249FB2
:101410005001259FB00C1124A60EB71EFB01EA1542
:10142000FB0528F177247394C4010E942407AC01C2
:1014300097FD79C0FE01EA15FB05B0F76081718167
:1014400024813581DB01A20FB31F8C91082E000C83
:10145000990B8417950781F52F5F3F4F35832483C0
:10146000828193812817390731F03696E4CF828143
:101470009381892BF9F4EC1BFD0BF595E7952BEA8D
:101480003AEAE29FC001E39F900DF29F900D112474
:10149000DF91CF911F910F91FF90EF90DF90CF9050
:1014A000BF90AF909F908F907F906F905F903F9094
:1014B0002F9008953696B3CF21153105B1F2E4800F
:1014C000F580C701019795838483DB01A80FB91FBD
:1014D000AC910A2E000CBB0BA417B50709F50097B9
:1014E00019F474821582C1CF6B018901081B190B95
:1014F000060F171F312C212CD6015D906D01D801EC
:101500006D908D01561006C0BFEF2B1A3B0A2816AE
:10151000390690F38215930591F6F582E482A5CF02
:10152000892B69F6A2CF8FEF9FEFB2CFEF92FF9298
:101530000F931F93CF93DF93CDB7DEB72C970FB6E2
:10154000F894DEBF0FBECDBFF9013097F9F41E82CB
:101550001D8269837A834B835C8341E050E0BE0146
:101560006F5F7F4F0E94F3099C0181E0232B09F0FC
:1015700080E02C960FB6F894DEBF0FBECDBFDF9192
:10158000CF911F910F91FF90EF9008957E0125E07C
:10159000E20EF11C28E0D7011D922A95E9F7698334
:1015A0007A834B835C83F887EF8309871A8742E04D
:1015B00050E0D5CF0F931F939A01DA010D900020D0
:1015C000E9F711978D01041B150BDB010D9000202D
:1015D000E9F71197AD01461B570B0E94960A1F9120
:1015E0000F910895CF93DF9300D000D000D0CDB7F6
:1015F000DEB71E821D827A8369835C834B8341E060
:1016000050E0BE016F5F7F4F0E94F3099C0181E0B3
:10161000232B09F080E026960FB6F894DEBF0FBEAC
:10162000CDBFDF91CF910895CF93DF9300D000D04D
:1016300000D0CDB7DEB7FB0101900020E9F731976C
:10164000E61BF70B1E821D827A836983FC83EB8382
:1016500041E050E0BE016F5F7F4F0E94F3099C01A3
:1016600081E0232B09F080E026960FB6F894DEBFC8
:101670000FBECDBFDF91CF9108954F925F926F92D1
:101680007F928F929F92AF92BF92CF92DF92EF9212
:10169000FF920F931F93CF93DF9300D000D00F9250
:1016A000CDB7DEB78B0149015A0190910001891332
:1016B00008C0EDE9F1E094919D839D8197FD0BC0F9
:1016C00048C09F3F41F480930001EDE9F1E094911F
:1016D0009D839F3FB1F40F900F900F900F900F904C
:1016E000DF91CF911F910F91FF90EF90DF90CF90FE
:1016F000BF90AF909F908F907F906F905F904F9032
:1017000008959D81913009F409C1923009F42CC1EA
:101710009111D3CF14BC15BC94B5926094BD95B50E
:10172000916095BD282F30E0F901EA53FE4FE49116
:10173000F0E0EE0FFF1FEC51FE4F45915491509396
:10174000F1014093F001F901EE54FE4FE491E09372
:10175000EF0161E00E94BD1A2801712C612C8D817E
:101760008D7F09F050C160E072E18AE790E0A3014B
:1017700098010E94541D29833A834B835C8369013D
:101780007A0181E0C81AD108E108F1089FEFC91673
:10179000D104E104F10409F008F40EC160E472E43C
:1017A0008FE090E0A30198010E94541D69017A0125
:1017B00081E0C81AD108E108F1089D8182E09230E9
:1017C000C1F48FEFC816D104E104F10409F008F464
:1017D00076C160E970ED83E090E0A30198010E947A
:1017E000541D69017A0191E0C91AD108E108F10894
:1017F00083E09FEFC916D104E104F10409F008F475
:10180000DCC068E478EE81E090E0A30192010E94E0
:10181000541D69017A0181E0C81AD108E108F10874
:101820009D81992309F463C1923009F0C3C08FEF01
:10183000C816D104E104F10409F008F442C164E2DD
:1018400074EF80E090E0A30192010E94541D6901B1
:101850007A0191E0C91AD108E108F10885E09FEF0B
:10186000C916D104E104F10409F008F4A6C062E14C
:101870007AE780E090E0A30192010E94541D690183
:101880007A0181E0C81AD108E108F1089D8191111F
:101890001AC18FEFC816D104E104F10409F008F46D
:1018A000AEC0C980DA80EB80FC809AE0F694E794C1
:1018B000D794C7949A95D1F791E0C91AD108E10855
:1018C000F1088D81882309F49CC087E09091B100D4
:1018D000987F892B8093B1002FEF3FEFA9018114EE
:1018E0009104A104B10409F078C09D81913009F4FC
:1018F000C2C08D81823009F4D2C08111ECCEC7BC48
:101900002093F2013093F3014093F4015093F501D9
:1019100080916E00826080936E00DDCE1092800018
:101920001092810090918100986090938100909135
:101930008100916090938100282F30E0F901EA53F3
:10194000FE4FE491F0E0EE0FFF1FEC51FE4F45918A
:1019500054915093EA014093E901F901EE54FE4F8E
:10196000E491E093E801F5CE1092B0001092B1003E
:101970009091B00092609093B0009091B10091600E
:101980009093B100282F30E0F901EA53FE4FE49123
:10199000F0E0EE0FFF1FEC51FE4F45915491509334
:1019A000E3014093E201F901EE54FE4FE491E0932C
:1019B000E101CFCE84E053CF81E09D81911186CFAC
:1019C00095B5987F892B85BD2FEF3FEFA901811435
:1019D0009104A104B10409F492CFD801AA0FBB1F4E
:1019E000A50194010E94951D69837A838B839C8352
:1019F00028EE33E040E050E00E94541D76CF84E0B2
:101A0000DFCF85E0DDCF60E072E18AE790E0A301FF
:101A100098010E94541D69017A0181E0C81AD10819
:101A2000E108F108C114D10491E0E906F104A8F13C
:101A300068E478EE81E090E0A30198010E94541DD3
:101A400069017A0181E0C81AD108E108F10893E040
:101A50008D81813009F041C080918100887F892B80
:101A60008093810081149104A104B10409F0B5CFE1
:101A70002FEF3FEFA901D0928900C09288002093F8
:101A8000EB013093EC014093ED015093EE01809116
:101A90006F00826080936F001ECE91E0D9CFC0921C
:101AA000B3002093E4013093E5014093E6015093A5
:101AB000E701809170008260809370000CCE82E01C
:101AC00005CF84E003CF86E09FEFC916D104E1047F
:101AD000F10409F008F4FACEE4CE2FEF3FEFA901AC
:101AE00081149104A104B10409F403CF76CF8FEFE0
:101AF000C816D104E104F10411F008F0B8CE83E077
:101B00005FCF813039F0823059F0811119C01092C5
:101B10006E00089580916F008D7F80936F0008950F
:101B2000809170008D7F8093700081E08093B00081
:101B30008091B100887F84608093B1001092B300DF
:101B40000895CF93C82F80910001C8130DC0EDE90F
:101B5000F1E084919FEF909300010E94810D60E07D
:101B60008C2FCF910C94F71A8FEFF7CF1F920F9213
:101B70000FB60F9211242F933F934F935F936F9360
:101B80007F938F939F93AF93BF93EF93FF93809136
:101B9000E4019091E501A091E601B091E701892B64
:101BA0008A2B8B2BD1F19091E101E091E201F09130
:101BB000E3018081892780838091E4019091E50190
:101BC000A091E601B091E701181619061A061B0646
:101BD0009CF48091E4019091E501A091E601B0911F
:101BE000E7010197A109B1098093E4019093E50110
:101BF000A093E601B093E701FF91EF91BF91AF9100
:101C00009F918F917F916F915F914F913F912F9114
:101C10000F900FBE0F901F901895809100010E94A9
:101C2000A10DEACFCF93DF9300D000D0CDB7DEB7C0
:101C300069837A838B839C8389819A81AB81BC8100
:101C40000097A105B10551F0BC01CD010F900F9097
:101C50000F900F90DF91CF910C941A220F900F905C
:101C60000F900F90DF91CF910895CF93DF93CDB771
:101C7000DEB728970FB6F894DEBF0FBECDBF6983DD
:101C80007A838B839C8389819A81AB81BC81892BE8
:101C90008A2B8B2B61F00E94AF2129813A814B81E5
:101CA0005C810E94761D69837A838B839C83698122
:101CB0007A818B819C8128960FB6F894DEBF0FBE87
:101CC000CDBFDF91CF910895CF92DF92EF92FF9237
:101CD000CF93DF9300D000D0CDB7DEB76B017C018E
:101CE000C901DA01C816D906EA06FB0664F42C1904
:101CF0003D094E095F09CA01B9010E94350EC60EA1
:101D0000D71EE81EF91EC701B6010F900F900F9065
:101D10000F90DF91CF91FF90EF90DF90CF900895DB
:101D20004F925F926F927F928F929F92AF92BF92EB
:101D3000CF92DF92EF92FF920F931F93CF93DF9397
:101D4000CDB7DEB728970FB6F894DEBF0FBECDBF74
:101D500069837A838B839C8329013A01ED82FE8219
:101D60000F8318878A2C9B2C560129813A814B813D
:101D70005C8124193509460957098B8D9C8DAD8DE1
:101D8000BE8D7C018D01E818F9080A091B09C801FC
:101D9000B7010E94441D2D813E814F815885241931
:101DA0003509460957090E94761DDA01C901880DD7
:101DB000991DAA1DBB1DBC01CD0128960FB6F89434
:101DC000DEBF0FBECDBFDF91CF911F910F91FF906E
:101DD000EF90DF90CF90BF90AF909F908F907F90CB
:101DE0006F905F904F9008950895982F862F0895D3
:101DF000FC0180819181009711F00C94B42008952A
:101E0000CF93DF93EC0188819981009711F00E94B4
:101E1000B420198218821D821C821B821A82DF91D3
:101E2000CF9108950F931F93CF93DF93EC018B0114
:101E30006F5F7F4F888199810E9423229C0180E0FF
:101E40002115310529F0398328831B830A8381E01A
:101E5000DF91CF911F910F910895CF93DF93EC0104
:101E6000CB0128813981232B49F02A813B81261718
:101E7000370720F081E0DF91CF910895BC01CE01BA
:101E80000E94120F8823B9F38C819D81892B91F7D1
:101E9000E881F9811082EECFEF92FF920F931F93AA
:101EA000CF93DF93EC017B018A01BA010E942D0FD1
:101EB00081110BC0CE010E94000FCE01DF91CF91A6
:101EC0001F910F91FF90EF9008950C831D83B70130
:101ED000888199810E947723F0CFCF93DF93FC0113
:101EE000DB01118210821382128215821482AB2BC5
:101EF00061F0EB0109900020E9F72197AE01461B44
:101F0000570BDF91CF910C944C0FDF91CF91089537
:101F1000EF92FF920F931F93CF93DF93EC017B011E
:101F20008A01BA010E942D0F81110BC0CE010E94BF
:101F3000000FCE01DF91CF911F910F91FF90EF9095
:101F400008950C831D83B701888199810E942B23FA
:101F5000F0CF0F931F93CF93DF938C01EB01FC0124
:101F60008081918168817981009781F06115710587
:101F700059F023E43DE1232B39F0428153812C8138
:101F80003D8142175307A0F40E94B42088819981B3
:101F9000F801918380838A819B81938382838C81E2
:101FA0009D8195838483198218821B821A8207C0BF
:101FB0000E9477238C819D81F801958384831D8203
:101FC0001C82DF91CF911F910F910895FC01118226
:101FD000108213821282158214820C94A90FFC01C4
:101FE0001182108213821282158214820C94A90F1E
:101FF000CF93DF93EC01FB018617970749F06081CF
:1020000071816115710541F0448155810E944C0F29
:10201000CE01DF91CF9108950E94000FF9CFFC010E
:102020001182108213821282158214820C94F80F8E
:10203000CF93DF93EC018617970711F00E94A90F49
:10204000CE01DF91CF910895CF93DF93EC01681714
:10205000790711F00E94A90FCE01DF91CF91089569
:10206000CF93DF93D82FC92FFB01EF2B79F0DB0142
:102070000D900020E9F71197AD01461B570B0E9408
:102080004C0F8D2F9C2FDF91CF9108950E94000F50
:10209000F8CFCF93DF9300D0CDB7DEB7FC0111822C
:1020A0001082138212821582148269831A82BE0101
:1020B0006F5F7F4F0E9430100F900F90DF91CF9194
:1020C00008950F931F93CF93DF93CDB7DEB7299772
:1020D0000FB6F894DEBF0FBECDBF8C01862FF8017E
:1020E00011821082138212821582148250E0BE0186
:1020F0006F5F7F4F90E00E943224BE016F5F7F4F81
:10210000C8010E94301029960FB6F894DEBF0FBEAA
:10211000CDBFDF91CF911F910F9108950F931F9322
:10212000CF93DF93CDB7DEB762970FB6F894DEBFDB
:102130000FBECDBF8C01CB01F8011182108213823A
:1021400012821582148250E0BE016F5F7F4F0E94A1
:10215000C023BE016F5F7F4FC8010E94301062969E
:102160000FB6F894DEBF0FBECDBFDF91CF911F91A8
:102170000F9108950F931F93CF93DF93CDB7DEB7E1
:1021800061970FB6F894DEBF0FBECDBF8C01CB01B7
:10219000F80111821082138212821582148250E09B
:1021A000BE016F5F7F4F0E943224BE016F5F7F4F81
:1021B000C8010E94301061960FB6F894DEBF0FBEC2
:1021C000CDBFDF91CF911F910F9108950F931F9372
:1021D000CF93DF93CDB7DEB7A2970FB6F894DEBFEB
:1021E0000FBECDBF8C01CB01BA01F8011182108264
:1021F000138212821582148230E0AE014F5F5F4F6E
:102200000E94D623BE016F5F7F4FC8010E9430102D
:10221000A2960FB6F894DEBF0FBECDBFDF91CF916F
:102220001F910F9108950F931F93CF93DF93CDB715
:10223000DEB7A1970FB6F894DEBF0FBECDBF8C01FD
:10224000CB01BA01F8011182108213821282158229
:10225000148230E0AE014F5F5F4F0E940524BE0143
:102260006F5F7F4FC8010E943010A1960FB6F8949F
:10227000DEBF0FBECDBFDF91CF911F910F910895AB
:10228000EF92FF920F931F93CF93DF93CDB7DEB7FB
:10229000A5970FB6F894DEBF0FBECDBF7C01842F8B
:1022A000F70111821082138212821582148242E099
:1022B000420F8E010F5F1F4F8AA35BA36CA37DA308
:1022C0006AA17BA18CA19DA10E94F11FBC01C70145
:1022D0000E943010A5960FB6F894DEBF0FBECDBF9A
:1022E000DF91CF911F910F91FF90EF9008950F9381
:1022F0001F93CF93DF93D82FC92F8B0161157105E1
:1023000081F0CB010E943223AC01B8018D2F9C2FAC
:102310000E94880F8D2F9C2FDF91CF911F910F91DD
:1023200008950E94000FF6CFFC01118210821382E3
:102330001282158214820C947711EF92FF920F9300
:102340001F93CF93DF93EC017B01CA010C811D81A8
:10235000672B41F480E0DF91CF911F910F91FF90A7
:10236000EF900895892B99F0040F151FB801CE0145
:102370000E942D0F882371F3288139818C819D81E2
:10238000B701820F931F0E9477231D830C8381E086
:10239000E2CFFB0144815581608171810C949D11D4
:1023A000FB01EF2B51F0DB010D900020E9F71197B5
:1023B000AD01461B570B0C949D1180E00895CF93FF
:1023C000DF9300D0CDB7DEB769831A8241E050E0D9
:1023D000BE016F5F7F4F0E949D110F900F90DF91A4
:1023E000CF910895EF92FF920F931F93CF93DF93B6
:1023F00000D000D0CDB7DEB77C01862F4AE08E0139
:102400000F5F1F4FB80190E00E94CB23F8010190AD
:102410000020E9F73197AF01401B510BB801C7010C
:102420000E949D110F900F900F900F90DF91CF9110
:102430001F910F91FF90EF900895EF92FF920F93ED
:102440001F93CF93DF93CDB7DEB728970FB6F894DD
:10245000DEBF0FBECDBF7C01CB014AE08E010F5F16
:102460001F4FB8010E94CB23F80101900020E9F72B
:102470003197AF01401B510BB801C7010E949D115C
:1024800028960FB6F894DEBF0FBECDBFDF91CF9177
:102490001F910F91FF90EF900895EF92FF920F938D
:1024A0001F93CF93DF9300D000D000D00F92CDB711
:1024B000DEB77C01CB014AE08E010F5F1F4FB801F0
:1024C0000E943D24F80101900020E9F73197AF0107
:1024D000401B510BB801C7010E949D1127960FB6F2
:1024E000F894DEBF0FBECDBFDF91CF911F910F914A
:1024F000FF90EF900895EF92FF920F931F93CF9369
:10250000DF93CDB7DEB72E970FB6F894DEBF0FBEC0
:10251000CDBF7C01CB01BA012AE08E010F5F1F4FB6
:10252000A8010E94E123F80101900020E9F731970A
:10253000AF01401B510BB801C7010E949D112E969F
:102540000FB6F894DEBF0FBECDBFDF91CF911F91C4
:102550000F91FF90EF900895EF92FF920F931F93CA
:10256000CF93DF93CDB7DEB72D970FB6F894DEBFCC
:102570000FBECDBF7C01CB01BA012AE08E010F5FF7
:102580001F4FA8010E941024F80101900020E9F7D4
:102590003197AF01401B510BB801C7010E949D113B
:1025A0002D960FB6F894DEBF0FBECDBFDF91CF9151
:1025B0001F910F91FF90EF900895EF92FF920F936C
:1025C0001F93CF93DF93CDB7DEB768970FB6F8941C
:1025D000DEBF0FBECDBF7C01842F8E010F5F1F4F6A
:1025E00022E044E08D8B5E8B6F8B788F6D897E89C6
:1025F0008F89988D0E94F11FBC01FC010190002081
:10260000E9F73197AF01481B590BC7010E949D1193
:1026100068960FB6F894DEBF0FBECDBFDF91CF91A5
:102620001F910F91FF90EF9008950C94DD12EF929F
:10263000FF920F931F93CF93DF93EC017B01611502
:10264000710541F480E0DF91CF911F910F91FF90D0
:10265000EF900895CB010E9432230097A9F00C81DE
:102660001D81080F191FB801CE010E942D0F88236C
:1026700049F3288139818C819D81B701820F931F95
:102680000E942B231D830C8381E0DDCFCF93DF934A
:10269000D82FC92FFB0144815581608171810E942F
:1026A0009D11811104C08D2F9C2F0E94000F8D2F32
:1026B0009C2FDF91CF910895CF93DF93D82FC92F0F
:1026C000FB01EF2B49F48D2F9C2F0E94000F8D2FC3
:1026D0009C2FDF91CF910895DB010D900020E9F749
:1026E0001197AD01461B570B0E949D11882359F38A
:1026F000EECFCF93DF93D82FC92F0E94DF11811126
:1027000004C08D2F9C2F0E94000F8D2F9C2FDF91D6
:10271000CF910895CF93DF93D82FC92F0E94F21144
:10272000811104C08D2F9C2F0E94000F8D2F9C2F94
:10273000DF91CF910895CF93DF93D82FC92F0E94B7
:102740001D12811104C08D2F9C2F0E94000F8D2F10
:102750009C2FDF91CF910895CF93DF93D82FC92F6E
:102760000E944D12811104C08D2F9C2F0E94000FDA
:102770008D2F9C2FDF91CF910895CF93DF93D82F8A
:10278000C92F0E947B12811104C08D2F9C2F0E94A3
:10279000000F8D2F9C2FDF91CF910895CF93DF9362
:1027A000D82FC92F0E94AC12811104C08D2F9C2FED
:1027B0000E94000F8D2F9C2FDF91CF910895CF9312
:1027C000DF93D82FC92F0E94DD12811104C08D2FF5
:1027D0009C2F0E94000F8D2F9C2FDF91CF91089589
:1027E0000C94DF13CF93DF93D82FC92F0E941713B8
:1027F000811104C08D2F9C2F0E94000F8D2F9C2FC4
:10280000DF91CF910895DC01FB018D919C9111978F
:10281000608171810097C9F061157105A1F414966A
:102820002D913C91232BA1F0FC01808190E0089533
:1028300084819581892B61F0FB01808190E09195E5
:102840008195910908950C946E236115710581F7A6
:1028500090E080E00895FC01DB012481358114962D
:102860008D919C912817390739F4CF010E940314E8
:102870009C0181E0232B09F080E00895DC01FB013D
:1028800014968D919C911597892B41F491E0309786
:10289000A1F08081882389F090E00FC00D90BC9159
:1028A000A02DEF2B19F491E08C91F4CFCD010E9473
:1028B0006E239C0191E0232B79F7892F08950E94C4
:1028C0000314892F881F8827881F08950E940314E6
:1028D0009C0181E0121613060CF080E008950E941E
:1028E00003149C0181E0121613060CF480E0089595
:1028F0000E940314892F8095881F8827881F0895B8
:10290000CF92DF92EF92FF920F931F93CF93DF93BB
:10291000DC01FB0186179707A1F014968D919C911D
:102920001597248135818217930749F5892B49F042
:10293000D080C180ED90FC90F70181917F018111E1
:102940000AC081E0DF91CF911F910F91FF90EF902E
:10295000DF90CF900895082E000C990B0E941B2346
:102960008C01CD2DDC2D8991082E000C990B0E9435
:102970001B230817190719F4DC2ECD2EDDCF80E0BC
:10298000E1CFDC01FB01CA014481558114962D91F0
:102990003C911597241B350B2817390790F02D9182
:1029A0003C912115310569F06081718161157105D6
:1029B00041F0820F931F0E947E239C0181E0232B14
:1029C00009F080E00895FC01DB0124813581149633
:1029D0008D919C912817390728F050E040E0CF01F5
:1029E0000C94C11480E00895DC01FB0114962D9134
:1029F0003C911597448155812417350798F08D91A6
:102A00009C91009779F0608171816115710551F099
:102A1000241B350B820F931F0E946E239C0181E0C3
:102A2000232B09F080E00895FC0124813581621791
:102A3000730730F40190F081E02DE60FF71F40831B
:102A40000895FC01848195816817790720F48081BD
:102A50009181009729F41092F60186EF91E0089594
:102A6000860F971F0895FC01848195816817790767
:102A700048F480819181009729F0860F971FFC010F
:102A80008081089580E008950C9433150F931F936F
:102A9000CF93DF93FC01EB01CA01A901009741F03C
:102AA000209731F0048115812017310730F018820A
:102AB000DF91CF911F910F9108950197021B130B86
:102AC0008017910708F48C0160817181640F751F74
:102AD000A801CE010E948C23C00FD11FE8CFCF9355
:102AE000DF93FC01CA01248135814217530770F43A
:102AF000C081D181062E000C770B8C0F9D1F0E9488
:102B000063239C018C1B9D0B232B11F48FEF9FEFF4
:102B1000DF91CF91089550E040E00C946F15CF9372
:102B2000DF93FC01DB01CA01248135814217530781
:102B300068F4C081D1816D917C918C0F9D1F0E94A2
:102B4000A6239C018C1B9D0B232B11F48FEF9FEF71
:102B5000DF91CF91089550E040E00C948F15DF9203
:102B6000EF92FF920F931F93CF93DF938C01EA01B3
:102B7000DC0114968D919C9115974817590750F0D8
:102B80008FEF9FEFDF91CF911F910F91FF90EF900B
:102B9000DF9008952196ED91FC911197EC0FFD1FA8
:102BA000D0801082ED90FC90062E000C770BC701B0
:102BB0000E949B239C01CE0DDF1DD882892B01F33F
:102BC000F80180819181A901481B590BCA01DACF14
:102BD000FC0144815581415051090C94AF15AF92CD
:102BE000BF92CF92DF92EF92FF920F931F93CF93FA
:102BF000DF93FC015B01EA01DB0114962D913C910E
:102C000021153105A1F184819581009781F1821709
:102C1000930768F14817590710F0EC012197C0801D
:102C2000D180C6010FEF1FEF7601EC0EFD1EE816F6
:102C3000F90660F4C801DF91CF911F910F91FF90C9
:102C4000EF90DF90CF90BF90AF900895F501608135
:102C500071810E94A6239C01009761F38C199D0944
:102C6000C817D90708F08C01C9010196E0CF0FEF12
:102C70001FEFE0CFFC01DB014481558114968D915B
:102C80009C91481B590BCF010C94EF15AF92BF924A
:102C9000CF92DF92EF92FF920F931F93CF93DF9328
:102CA0005C016B018A01E9012417350720F4812FAB
:102CB0008901C42FD82F6BE271E0C5010E946D0F0E
:102CC000D6011496ED90FC900E151F05C8F4CE1594
:102CD000DF0508F47E01D601ED91FC911197EE0D10
:102CE000FF1DC08110826D917C91600F711FC50125
:102CF0000E943010D601ED91FC91EE0DFF1DC083B6
:102D0000C501DF91CF911F910F91FF90EF90DF9060
:102D1000CF90BF90AF900895DC01ED91FC9130977A
:102D200019F08191811101C008958613FACFDF0156
:102D300011974C93F6CF2F923F924F925F926F92E2
:102D40007F928F929F92AF92BF92CF92DF92EF923B
:102D5000FF920F931F93CF93DF938C016B017A0146
:102D6000DC0114964D905C904114510491F1FB01EB
:102D7000848095808114910461F1DA0114968D911B
:102D80009C913C0168187908F801C081D181DB0170
:102D90002D903C908815990599F0520177FE75C0E9
:102DA0005E0150C0F7016081718144815581CE017F
:102DB0000E944823D70114968D919C91C80FD91F6A
:102DC000F60160817181CE010E94A623EC01892B5E
:102DD00049F7DF91CF911F910F91FF90EF90DF9016
:102DE000CF90BF90AF909F908F907F906F905F90AB
:102DF0004F903F902F90089542018C1A9D0AA40194
:102E0000BE01C5010E944823A80CB91CD7016D91D1
:102E10007C91119714964D915C91C5010E944823B5
:102E2000F70184819581A80EB91ED6011496CD9123
:102E3000DC91C40DD51DF80184819581860D971D07
:102E400095838483D6016D917C91CE010E94A62347
:102E50002C01892B89F6BE01C501DF91CF911F910D
:102E60000F91FF90EF90DF90CF90BF90AF909F9029
:102E70008F907F906F905F904F903F902F900C9429
:102E80007723C80DD91DA60CB71CB101CE010E9435
:102E9000A623EC01892BA9F74A145B0409F499CF06
:102EA000F801828193818A159B0508F43FC0D801FF
:102EB00014964D915C914150510957FD8ACFB6014E
:102EC000C8010E94EF15EC0197FD83CFF601248124
:102ED0003581280F391FD8018D919C911197820F50
:102EE000931F14964D915C91421B530BBC01860DB0
:102EF000971D0E945123F80184819581860D971DAD
:102F0000958384830190F081E02DE80FF91F1082F2
:102F1000D8018D919C91F701608171814481558127
:102F20008C0F9D1F0E944823AE01C5CFB501C8017B
:102F30000E94120F8111BBCF4CCFCF93DF93EC01D6
:102F4000CB019A014C815D816417750708F5211545
:102F50003105F1F0BA01681B790B2617370708F421
:102F6000B90128813981461B570B5D834C83481B6F
:102F7000590B680F791F620F731F820F931F0E94F6
:102F80008C23E881F9818C819D81E80FF91F1082E3
:102F9000DF91CF9108954FEF5FEF0C949D17CF9382
:102FA000DF93FC01C081D181209719F089918111B3
:102FB00003C0DF91CF910895082E000C990B0E9459
:102FC0001B23FE0131978083F1CFCF93DF93FC0168
:102FD000C081D181209719F08991811103C0DF91BF
:102FE000CF910895082E000C990B0E942323FE0117
:102FF00031978083F1CFAF92BF92CF92DF92EF9261
:10300000FF920F931F93CF93DF938C01DC01ED9020
:10301000FC901197E114F104B9F11496CD91DC9173
:10302000209791F157016501F50181915F01082E0B
:10303000000C990B0E941223892BA9F72197CE0D22
:10304000DF1D8881082E000C990B0E941223892B0A
:1030500031F5AE014F5F5F4F4C195D09D8011596F0
:103060005C934E931497EC14FD0420F4B601C70151
:103070000E944823D801ED91FC91119714968D91EF
:103080009C91E80FF91F1082DF91CF911F910F9152
:10309000FF90EF90DF90CF90BF90AF900895CC1548
:1030A000DD05B8F22197CDCFFC0180819181009799
:1030B00011F00C94EB2260E070E0CB010895FC016C
:1030C00080819181009711F00C94E72260E070E01C
:1030D000CB0108950C945F18089508959A018230E9
:1030E000E8F4E82FF0E0EE0FFF1FEF5FFE4F718373
:1030F0006083813041F0809169008C7F822B8093C6
:103100006900E89A089580916900837F220F331F38
:10311000220F331F822B80936900E99A0895823031
:1031200068F4E82FF0E0813051F0E898EE0FFF1FCF
:10313000EF5FFE4F8DE698E1918380830895E998D3
:10314000F5CF1F920F920FB60F9211242F933F933A
:103150004F935F936F937F938F939F93AF93BF939F
:10316000EF93FF93E0910101F09102010995FF9126
:10317000EF91BF91AF919F918F917F916F915F91EF
:103180004F913F912F910F900FBE0F901F90189568
:103190001F920F920FB60F9211242F933F934F93CC
:1031A0005F936F937F938F939F93AF93BF93EF93AF
:1031B000FF93E0910301F09104010995FF91EF91D4
:1031C000BF91AF919F918F917F916F915F914F913F
:1031D0003F912F910F900FBE0F901F9018958093E5
:1031E000050108958E3008F08E502091050190E47D
:1031F000299F900111248770822B80937C008091FD
:103200007A00806480937A0080917A0086FDFCCFFA
:10321000809178009091790008951F93CF93DF9368
:10322000182FEB0161E00E94BD1A209739F460E08D
:10323000812FDF91CF911F910C94F71ACF3FD105C9
:1032400011F461E0F5CFE12FF0E0E256FE4FE4919A
:10325000E43071F150F4E230E1F0E330F9F0E130C4
:1032600081F0C038D1051CF3ECCFE73059F1E830DC
:10327000C1F78091B00080628093B000C093B40029
:1032800004C084B5806884BDC7BDDF91CF911F9114
:10329000089584B5806284BDC8BDF7CF8091800059
:1032A000806880938000D0938900C0938800EDCF20
:1032B00080918000806280938000D0938B00C093C7
:1032C0008A00E3CF8091B00080688093B000C09303
:1032D000B300DBCF1F921FB61F9211242F933F9391
:1032E0008F939F93AF93BF938091F7019091F801D3
:1032F000A091F901B091FA013091FF0123E0230F71
:103300002D3750F50196A11DB11D2093FF0180932B
:10331000F7019093F801A093F901B093FA0180911D
:10332000FB019091FC01A091FD01B091FE0101967D
:10333000A11DB11D8093FB019093FC01A093FD01A1
:10334000B093FE01BF91AF919F918F913F912F91CB
:103350001F901FBE1F90189526E8230F0296A11DEF
:10336000B11DD3CFCF93DF9300D000D0CDB7DEB760
:103370008FB7F8942091F7013091F8014091F9014D
:103380005091FA0129833A834B835C838FBF698113
:103390007A818B819C810F900F900F900F90DF911D
:1033A000CF910895CF93DF9300D000D0CDB7DEB793
:1033B0003FB7F8948091FB019091FC01A091FD0131
:1033C000B091FE0126B5A89B05C02F3F19F00196CC
:1033D000A11DB11D3FBFBA2FA92F982F8827820F9B
:1033E000911DA11DB11D9C01AD0162E0220F331F93
:1033F000441F551F6A95D1F7CA01B9010F900F906C
:103400000F900F90DF91CF9108958F929F92AF927E
:10341000BF92CF92DF92EF92FF92CF93DF9300D0D3
:1034200000D0CDB7DEB76B017C010E94D2194B01F1
:103430005C01C114D104E104F10479F40F900F9000
:103440000F900F90DF91CF91FF90EF90DF90CF9092
:10345000BF90AF909F908F9008950E946C180E942B
:10346000D219DC01CB0188199909AA09BB09883E48
:103470009340A105B105E8F221E0C21AD108E108A4
:10348000F10888EE880E83E0981EA11CB11CC114BF
:10349000D104E104F10419F7CCCF8230910538F062
:1034A000880F991F880F991F05970197F1F70895C5
:1034B000789484B5826084BD84B5816084BD85B50F
:1034C000826085BD85B5816085BDEEE6F0E08081D6
:1034D00081608083E1E8F0E01082808182608083F7
:1034E000808181608083E0E8F0E08081816080837A
:1034F000E1EBF0E0808184608083E0EBF0E08081AC
:1035000081608083EAE7F0E080818460808380814D
:1035100082608083808181608083808180688083F5
:103520001092C1000895843099F038F48230C1F0CF
:10353000833041F0813081F008958730A1F08830E8
:10354000C1F00895809180008F7780938000089566
:10355000809180008F7DF9CF84B58F7784BD0895E9
:1035600084B58F7DFBCF8091B0008F778093B000C2
:1035700008958091B0008F7DF9CFCF93DF9390E0D5
:10358000FC01EE54FE4F24918A539E4FFC0184911E
:103590008823C9F090E0880F991FFC01E251FE4F8B
:1035A000A591B491FC01EC51FE4FC591D4919FB708
:1035B00061110CC0F8948C91209582238C938881A2
:1035C000282328839FBFDF91CF910895623051F463
:1035D000F8943C91822F809583238C938881822B51
:1035E0008883F0CFF8948C91822B8C93EBCF1F9330
:1035F000CF93DF93162F282F30E0F901E256FE4FCC
:103600008491F901EE54FE4FD491F901EA53FE4F33
:10361000C491CC23A1F081110E94931AEC2FF0E009
:10362000EE0FFF1FEC51FE4FA591B4919FB7F89498
:103630008C91111108C0D095D823DC939FBFDF91E6
:10364000CF911F9108958D2B8C93F8CFCF93DF935B
:10365000282F30E0F901E256FE4F8491F901EE5433
:10366000FE4FD491F901EA53FE4FC491CC2379F077
:1036700081110E94931AEC2FF0E0EE0FFF1FE6522B
:10368000FE4FA591B491EC91ED2381E009F480E027
:1036900090E0DF91CF9108950F931F93762F022F23
:1036A000132F9A0190E0FC01EE54FE4F6491FC014F
:1036B000EA53FE4FE4917111762FF0E0EE0FFF1FF9
:1036C000E652FE4F859194913F70472F0E94901CC7
:1036D000611571058105910529F06F5F7F4F8F4F4F
:1036E0009F4F9F701F910F9108954F925F926F921D
:1036F0007F928F929F92AF92BF92CF92DF92EF9282
:10370000FF920F931F93CF93DF9300D000D000D090
:10371000CDB7DEB7162F49015A0190E0FC01EE54F7
:10372000FE4F04918A539E4FFC01F491F98361117D
:10373000102F0E94D2196B017C019981892F90E092
:10374000880F991F86529E4F9E838D83ED81FE8147
:10375000A591B4918C918023811711F1ED81FE81A7
:10376000A591B4918C91802381134BC00E94D219F2
:103770002B013C01ED81FE81A591B4918C918023B8
:10378000811709F451C00E94D219DC01CB018419C0
:103790009509A609B70989839A83AB83BC8316C0B0
:1037A0000E94D21969837A838B839C83DC01CB01CD
:1037B0008C199D09AE09BF0988169906AA06BB0691
:1037C00008F0C4CF19821A821B821C8269817A8117
:1037D0008B819C8126960FB6F894DEBF0FBECDBFBD
:1037E000DF91CF911F910F91FF90EF90DF90CF90DD
:1037F000BF90AF909F908F907F906F905F904F9011
:1038000008950E94D21969837A838B839C83DC019B
:10381000CB018C199D09AE09BF0988169906AA0625
:10382000BB0608F09BCFCECF0E94D21969837A8362
:103830008B839C83DC01CB018C199D09AE09BF09E8
:1038400088169906AA06BB0608F094CFBBCFAF92A4
:10385000BF92CF92DF92EF92FF920F931F93CF937D
:10386000DF93F82ED62FE42E07E010E0C0E087E0CB
:10387000C82ED12C61E08D2F0E94F71A5601A01A94
:10388000B10A8F2DE1101AC00E94261B01C0880FBB
:10389000AA94EAF7C82B60E08D2F0E94F71A015016
:1038A000110940F78C2FDF91CF911F910F91FF905D
:1038B000EF90DF90CF90BF90AF9008950E94261BAD
:1038C000002E01C0880F0A94EAF7E4CFFF920F930D
:1038D0001F93CF93DF93182FD62FF42EC22F08E01B
:1038E0006C2FF11015C06170812F0E94F71AC695D8
:1038F00061E08D2F0E94F71A60E08D2F0E94F71A69
:10390000015071F7DF91CF911F910F91FF900895B2
:10391000661F6627661F812F0E94F71ACC0FE8CF1B
:10392000CF92DF92EF92FF920F931F93E82FF92F20
:1039300005C0015011092109310961F190819623D7
:103940009417B9F305C0015011092109310911F18A
:10395000908196239413F7CFC12CD12CE12CF12C1C
:103960000AC08FEFC81AD80AE80AF80A0C151D0514
:103970002E053F0579F080818623841791F36C2D05
:103980007D2D8E2D9F2D1F910F91FF90EF90DF9039
:10399000CF90089560E070E080E090E01F910F917B
:1039A000FF90EF90DF90CF90089561E08DE00E944E
:1039B000BD1A61E08DE00E94F71A2FEF89E698E1C9
:1039C000215080409040E1F700C0000060E08DE0B1
:1039D0000E94F71A2FEF89E698E12150804090402D
:1039E000E1F700C00000E5CF0E94E222E4E4F1E04C
:1039F0001382128288EE93E0A0E0B0E08483958386
:103A0000A683B78385E191E09183808385EC90E084
:103A10009587848784EC90E09787868780EC90E098
:103A2000918B808B81EC90E0938B828B82EC90E089
:103A3000958B848B86EC90E0978B868B118E128E03
:103A4000138E148E0895089590E080E008950895EF
:103A5000CF93DF93EC01DB01AB2B81F0FB010190F5
:103A60000020E9F73197AF01461B570BE881F98138
:103A70000280F381E02DDF91CF91099490E080E006
:103A8000DF91CF9108950895DB018F939F930E945A
:103A9000951DBF91AF91A29F800D911DA39F900D89
:103AA000B29F900D11240895A1E21A2EAA1BBB1BF0
:103AB000FD010DC0AA1FBB1FEE1FFF1FA217B307FA
:103AC000E407F50720F0A21BB30BE40BF50B661F10
:103AD000771F881F991F1A9469F7609570958095D4
:103AE00090959B01AC01BD01CF010895052E97FB78
:103AF0001EF400940E948D1D57FD07D00E94541D96
:103B000007FC03D04EF40C948D1D509540953095D4
:103B100021953F4F4F4F5F4F089590958095709539
:103B200061957F4F8F4F9F4F08950E94A61DA59FBF
:103B3000900DB49F900DA49F800D911D11240895A8
:103B4000EE0FFF1F0590F491E02D0994A29FB001A4
:103B5000B39FC001A39F700D811D1124911DB29FC1
:103B6000700D811D1124911D08955058BB27AA275F
:103B70000E94CD1D0C94401F0E94321F38F00E94FD
:103B8000391F20F039F49F3F19F426F40C942F1FAD
:103B90000EF4E095E7FB0C94291FE92F0E94511FBA
:103BA00058F3BA17620773078407950720F079F472
:103BB000A6F50C94731F0EF4E0950B2EBA2FA02DD2
:103BC0000B01B90190010C01CA01A0011124FF27CA
:103BD000591B99F0593F50F4503E68F11A16F040C5
:103BE000A22F232F342F4427585FF3CF46953795C4
:103BF0002795A795F0405395C9F77EF41F16BA0B89
:103C0000620B730B840BBAF09150A1F0FF0FBB1F36
:103C1000661F771F881FC2F70EC0BA0F621F731F7F
:103C2000841F48F4879577956795B795F7959E3FDC
:103C300008F0B0CF9395880F08F09927EE0F97956D
:103C4000879508950E94051F08F481E008950E9459
:103C50003B1E0C94401F0E94391F58F00E94321FD7
:103C600040F029F45F3F29F00C94291F51110C9466
:103C7000741F0C942F1F0E94511F68F39923B1F3F6
:103C8000552391F3951B550BBB27AA276217730782
:103C9000840738F09F5F5F4F220F331F441FAA1F16
:103CA000A9F335D00E2E3AF0E0E832D091505040D2
:103CB000E695001CCAF72BD0FE2F29D0660F771F80
:103CC000881FBB1F261737074807AB07B0E809F066
:103CD000BB0B802DBF01FF2793585F4F3AF09E3FEB
:103CE000510578F00C94291F0C94741F5F3FE4F386
:103CF000983ED4F3869577956795B795F7959F5F2E
:103D0000C9F7880F911D9695879597F90895E1E079
:103D1000660F771F881FBB1F621773078407BA07D8
:103D200020F0621B730B840BBA0BEE1F88F7E09533
:103D300008950E94591F88F09F5798F0B92F99272E
:103D4000B751B0F0E1F0660F771F881F991F1AF086
:103D5000BA95C9F714C0B13091F00E94731FB1E059
:103D600008950C94731F672F782F8827B85F39F058
:103D7000B93FCCF3869577956795B395D9F73EF41F
:103D800090958095709561957F4F8F4F9F4F0895C7
:103D9000E89409C097FB3EF49095809570956195E5
:103DA0007F4F8F4F9F4F9923A9F0F92F96E9BB279B
:103DB0009395F695879577956795B795F111F8CF17
:103DC000FAF4BB0F11F460FF1BC06F5F7F4F8F4F82
:103DD0009F4F16C0882311F096E911C0772321F078
:103DE0009EE8872F762F05C0662371F096E8862F10
:103DF00070E060E02AF09A95660F771F881FDAF767
:103E0000880F9695879597F90895990F0008550F93
:103E1000AA0BE0E8FEEF16161706E807F907C0F050
:103E200012161306E407F50798F0621B730B840B58
:103E3000950B39F40A2661F0232B242B252B21F432
:103E400008950A2609F4A140A6958FEF811D811DD2
:103E5000089597F99F6780E870E060E008959FEF0C
:103E600080EC089500240A94161617061806090611
:103E7000089500240A9412161306140605060895E0
:103E8000092E0394000C11F4882352F0BB0F40F468
:103E9000BF2B11F460FF04C06F5F7F4F8F4F9F4FA8
:103EA000089557FD9058440F551F59F05F3F71F02A
:103EB0004795880F97FB991F61F09F3F79F0879591
:103EC0000895121613061406551FF2CF4695F1DF1A
:103ED00008C0161617061806991FF1CF86957105AA
:103EE000610508940895E894BB2766277727CB01DE
:103EF00097F908950E94051F08F48FEF08950E9416
:103F0000921F0C94401F0E94321F38F00E94391FEC
:103F100020F0952311F00C94291F0C942F1F1124CD
:103F20000C94741F0E94511F70F3959FC1F3950F5D
:103F300050E0551F629FF001729FBB27F00DB11D2D
:103F4000639FAA27F00DB11DAA1F649F6627B00DBD
:103F5000A11D661F829F2227B00DA11D621F739FA6
:103F6000B00DA11D621F839FA00D611D221F749FB4
:103F70003327A00D611D231F849F600D211D822FFB
:103F8000762F6A2F11249F5750409AF0F1F0882322
:103F90004AF0EE0FFF1FBB1F661F771F881F91504F
:103FA0005040A9F79E3F510580F00C94291F0C94B6
:103FB000741F5F3FE4F3983ED4F386957795679539
:103FC000B795F795E7959F5FC1F7FE2B880F911D79
:103FD0009695879597F908950E94051F880B990B70
:103FE0000895EF920F931F93CF93DF9300D000D0EB
:103FF0000F92CDB7DEB7322F0D8354E047FD54E169
:10400000242F27FD2195E52E032F4D81512F698304
:104010007A838B839C8369817A818B819C810E94C6
:1040200057248D81912F0F900F900F900F900F902C
:10403000DF91CF911F910F91EF9008950F931F93F0
:10404000CF93DF939C01029710F422E030E0E091DF
:104050000002F091010290E080E0B0E0A0E0309733
:1040600091F4009709F445C0821B930B84309105AD
:10407000B8F58A819B816115710569F1FB01938314
:104080008283FE0111C04081518102811381421758
:104090005307F0F04217530799F4109761F0129606
:1040A0000C93129713961C933296CF01DF91CF9108
:1040B0001F910F9108950093000210930102F4CF15
:1040C000009719F04817590718F4CA01BD01EF010C
:1040D000DF01F801C4CF9093010280930002D1CF99
:1040E000FE01E80FF91F219331930297998388838A
:1040F000DCCF8091020290910302892B41F48091E0
:10410000080190910901909303028093020280912B
:10411000060190910701009741F48DB79EB7409139
:104120000A0150910B01841B950B409102025091A2
:1041300003024817590708F0B8CF841B950B821764
:10414000930708F4B2CFB9016E5F7F4F86179707C8
:1041500008F4ABCF640F751F7093030260930202E3
:10416000FA0121933193A1CFCF93DF939C01009764
:10417000E9F0FC01329713821282C0910002D091C3
:104180000102DE0190E080E02097A1F4808191811E
:10419000280F391F80910202909103028217930722
:1041A00009F067C0F0930302E0930202DF91CF9120
:1041B0000895DA01AE17BF0708F041C012964D917D
:1041C0005C911397CD014115510599F7DC011396C8
:1041D000FC93EE9312974D915D91A40FB51FEA17D2
:1041E000FB0781F4208131812E5F3F4F240F351F63
:1041F000DC0111963C932E932281338113963C93DC
:104200002E931297B0E0A0E08A819B810097B1F5D0
:10421000FE0181919191E80FF91F80910202909126
:1042200003028E179F0711F6109759F5109201029D
:1042300010920002D0930302C0930202B7CFB3835F
:10424000A28340815181240F351FA217B30771F457
:104250004E5F5F4F2D913C911197240F351F318395
:10426000208312962D913C9133832283009709F08D
:10427000ADCFF0930102E093000298CFDE01EC0194
:10428000C3CF13961C921E921297D4CFCF92DF9277
:10429000EF92FF92CF93DF93CDB7DEB72A970FB699
:1042A000F894DEBF0FBECDBF89879A87A985BA85EE
:1042B0002D913D914D915C9129833A834B835C8391
:1042C000232B242B252B41F424E239ED4BE557E039
:1042D00029833A834B835C8369817A818B819C81BA
:1042E0002DE133EF41E050E00E94761D69017A0133
:1042F000A7EAB1E49B01AC010E94951D69837A8312
:104300008B839C83ACEEB4EFA70196010E945B28DF
:104310009B01AC0189819A81AB81BC81820F931F83
:10432000A41FB51FB7FF03C00197A109B048E985D5
:10433000FA8580839183A283B3839C01AD015F776B
:10434000CA01B9012A960FB6F894DEBF0FBECDBFE1
:10435000DF91CF91FF90EF90DF90CF900895CF92B3
:10436000DF92EF92FF92CF93DF93CDB7DEB728971E
:104370000FB6F894DEBF0FBECDBF20910C01309177
:104380000D0140910E0150910F0129833A834B8317
:104390005C83232B242B252B41F484E299EDABE5A0
:1043A000B7E089839A83AB83BC8369817A818B81EF
:1043B0009C812DE133EF41E050E00E94761D6901C0
:1043C0007A01A7EAB1E49B01AC010E94951D6983C3
:1043D0007A838B839C83ACEEB4EFA70196010E9495
:1043E0005B289B01AC0189819A81AB81BC81820FE2
:1043F000931FA41FB51FB7FF03C00197A109B048C1
:1044000080930C0190930D01A0930E01B0930F01C6
:104410009C01AD015F77CA01B90128960FB6F894E7
:10442000DEBF0FBECDBFDF91CF91FF90EF90DF9049
:10443000CF90089560930C0170930D0180930E014D
:1044400090930F010895B0E0A0E0E9E2F2E20C944D
:104450006228EC01CB01209749F40E941E20EC0158
:10446000CE01CDB7DEB7E0E10C947E28FE01E60F69
:10447000F71F9E0122503109E217F30708F49FC08D
:10448000D9010D911C91119706171707A8F0053057
:10449000110530F3A801445051094617570700F39E
:1044A000061B170B02501109019311936D937C9316
:1044B000CF010E94B420D4CF4B01801A910A5E0133
:1044C000A00EB11EA0910002B0910102512C412C0E
:1044D000F12CE12C109739F5409102025091030222
:1044E0004A155B0509F05DC04816590608F059C029
:1044F00040910601509107014115510541F44DB716
:104500005EB760910A0170910B01461B570BE417CF
:10451000F50708F054C0F0930302E0930202F9019A
:10452000918380839DCF4D915C91119712966C90F1
:10453000129713967C901397AA15BB0559F56A013B
:1045400062E0C60ED11CC814D90420F1B801681B62
:10455000790B640F751FDB011296159780F062824C
:10456000738271836083D9018D939C93E114F1046C
:1045700061F0D7011396FC93EE93129771CFC801A7
:104580000296840F951FF301EECFF0930102E093A2
:10459000000266CF4416550608F42A017D01D301B6
:1045A00099CF0E941E207C01009749F0A801BE010E
:1045B0000E944823CE010E94B420E70151CFD0E0F1
:1045C000C0E04ECF81E090E0F8940C9497286627E5
:1045D00077270C94A1251F93FC0199278827BC01FC
:1045E000E89411911032E9F3193010F01E30C8F33D
:1045F0001B3251F01D3249F4689406C00E94F0232A
:10460000610F711D811D911D119110531A30B0F36E
:104610003EF490958095709561957F4F8F4F9F4F99
:104620001F91089591110C942628803219F0895019
:104630008550C8F708959111089581548A5108F45E
:10464000805E855A08959111089581568A5108F423
:10465000805285580895FB01DC0105900D920020E1
:10466000E1F70895FC0105900020E9F78095909509
:104670008E0F9F1F0895FB01DC0104C08D910190F6
:10468000801921F441505040C8F7881B990B0895B8
:10469000FB01DC0102C001900D9241505040D8F75F
:1046A00008956817790768F4FB01DC01E40FF51F32
:1046B000A40FB51F02C002900E9241505040D8F78F
:1046C00008950C944823FC018191861721F08823DA
:1046D000D9F7992708953197CF010895FB01DC019F
:1046E0008D91019080190110D9F3990B0895FB0168
:1046F000DC0101900D920020E1F70895FB01DC013F
:104700004150504030F08D910190801919F40020F3
:10471000B9F7881B990B0895FB01DC01415050400B
:1047200048F001900D920020C9F701C01D92415040
:104730005040E0F70895FC0181E090E001900616FA
:1047400009F4CF010020D1F701970895FB015191A1
:104750005523A9F0BF01DC014D9145174111E1F747
:1047600059F4CD010190002049F04D9140154111BF
:10477000C9F3FB014111EFCF81E090E0019708956B
:104780004532510520F4423010F00C94CB23FB014C
:104790001082CB010895BB274A3031F4992322F4CB
:1047A000BDE2909581959F4F0C943E2425323105B2
:1047B00020F4223010F00C94E123FA011082CA0197
:1047C0000895BB272A3051F4992342F4BDE2909515
:1047D0008095709561957F4F8F4F9F4F0C9411245A
:1047E000592F482F372F262F660F771F881F991FA5
:1047F000660F771F881F991F620F731F841F951FF5
:10480000660F771F881F991F08952532310520F400
:10481000223010F00C941024FA011082CA0108957D
:10482000BB27FA01A62F6217710581059105330B8D
:1048300030FB66F0AA27660F771F881F991FAA1FF3
:10484000A21710F0A21B63953850A9F7A05DAA33F8
:1048500008F0A95DA19336F7B111B1931082CA0196
:104860000C9448284532510520F4423010F00C9445
:104870003D24FB011082CB010895BB27FB01552786
:10488000AA27880F991FAA1FA41710F0A41B8395AD
:104890005051B9F7A05DAA3308F0A95DA193009724
:1048A00079F7B111B1931192CB010C944828ADE086
:1048B000B0E0EDE5F4E20C9460286A01F22E402E9F
:1048C0002E2C102F2BE3201708F41BE31F5F012F62
:1048D00027E0AE014F5F5F4F6A877B878C879D879C
:1048E0006A857B858C859D850E944E274C01598069
:1048F000852D89700DE2813039F00BE221FC04C076
:10490000022D0295000F0072422D4071342E952D1C
:10491000987053FE3CC083E0011184E08F15A8F528
:10492000F81A31100BC0EF2CF12CA70160E270E0F7
:10493000C6010E944128CE0CDF1CF12C002319F087
:10494000F60101936F0186010D5F1F4F91E48EE424
:1049500022FC02C091E68EE6D6018C9311969C93C0
:10496000119712968C93EF2CF12CA70160E270E066
:10497000C8010E944128F801EE0DFF1D10828EEF44
:104980009FEF2D96E2E10C947C28F12CCACF52FEC9
:1049900035C083E0011184E08F1510F49F2D981B22
:1049A00031100BC0E92EF12CA70160E270E0C601C6
:1049B0000E944128CE0CDF1C90E0002319F0F60184
:1049C00001936F017601B3E0EB0EF11C39E42EE4A4
:1049D00086E422FC03C039E62EE686E6F601308343
:1049E00021838283092F10E0A80160E270E0C701F3
:1049F0000E944128F701E00FF11FC0CF540197FE3C
:104A000002C0B12CA12C81E090E0011102C090E025
:104A100080E095012F5F3F4F820F931F642C712C14
:104A200093012F5F3F4F411002C030E020E0820F22
:104A3000931FF816190609F00CF45FC0F81A31102C
:104A40007DC023FC0BC0EF2CF12CA70160E270E0CD
:104A5000C6010E944128CE0CDF1CF12C002329F056
:104A6000D6010D936D0131100BC0EF2CF12CA70175
:104A700060E370E0C6010E944128CE0CDF1CF12CDF
:104A8000180D9A81252D207154FE03C0913309F42D
:104A900011501116A4F5193008F018E0F401EA19C4
:104AA000FB0941E050E04C0F5D1FE40FF51FA4012E
:104AB000411B51097194619471083EE28A149B0470
:104AC00004F14A155B05ECF48181B1E0AB1AB10841
:104AD00086010F5F1F4FA614B704ACF0D6018C936C
:104AE000BFEFAB16BB0631F486010E5F1F4FD60138
:104AF00011963C9331966801E1CFF12CA0CF11E0E3
:104B0000CDCF80E3E2CF8A149B0439F4963320F4AE
:104B1000953319F4211101C081E3F6018083EF2C54
:104B2000F12CA70160E270E0C8010E9441280E0D3F
:104B30001F1DD8011C9290E080E023CF011190CF7F
:104B40009FCFA8E0B0E0E7EAF5E20C9468288D83F7
:104B50009E836B016115710529F0ED81FE81DB01FA
:104B6000ED93FC93ED80FE8097012F5F3F4F3E83D6
:104B70002D83D7010C91802F90E00E9412235C01BD
:104B8000892B81F70D32D9F5ED81FE8100819701E6
:104B90002E5F3F4F3E832D8311E0ED80FE80F1E0DC
:104BA000EF1AF10843E050E060E770E0C7010E94AF
:104BB0002928892B79F5ED80FE8022E0E20EF11C98
:104BC00045E050E06BE670E0C7010E942928892B80
:104BD00029F4ED80FE8037E0E30EF11CC114D1040E
:104BE00019F0D601ED92FC9220E030E040E85FE75A
:104BF000112339F120E030E040E85FEF22C00B32B2
:104C000039F4AD81BE810C91F7013296FE83ED83BC
:104C100010E0C3CF43E050E068E670E0C7010E94B7
:104C20002928892BD1F4C114D10409F42EC1ED81B6
:104C3000FE813296D601ED93FC9320E030E040EC0B
:104C40005FE729833A834B835C8369817A818B8117
:104C50009C812896EAE00C948428F12CE12C19829E
:104C60001A821B821C82F0EDF00FFA30B8F5E12FAA
:104C7000E260812F887012FF0CC0811103C03FEFEA
:104C8000E31AF30AAD81BE810D91BE83AD831E2F61
:104C9000EACF882319F041E0E41AF108A5E0B0E07A
:104CA00029813A814B815C810E94951DDC01CB01F9
:104CB000880F991FAA1FBB1F9C01AD012F0F311D2B
:104CC000411D511D29833A834B835C83283939491F
:104CD00049495941B8F2E12FE660D4CFFE3F29F4AB
:104CE00013FD26C0E12FE860CDCF0F7D053401F51F
:104CF000ED81FE8180818D3241F410619F012E5F34
:104D00003F4F818142E050E009C02D813E818B32CE
:104D100009F456C02F5F3F4F41E050E0805395E0CB
:104D20008A3008F456C0F901E41BF50BFE83ED83CD
:104D300011FF0AC0C114D10439F02D813E812150E8
:104D40003109F6013183208369817A818B819C81CD
:104D50000E94C81E462F572FBC014D835E836F8370
:104D600078871370133039F4DC01CA01B0588D8391
:104D70009E83AF83B8872D813E814F8158852983DB
:104D80003A834B835C8320E030E0A9016D817E8112
:104D90008F8198850E94221E882309F456CFF7FE42
:104DA0006FC0F194E194F10847E850E05E834D83D1
:104DB000CD80DE8038E1C31AD10800E210E037C0B0
:104DC0002E5F3F4FAD81BE8111968C919BCF2D817F
:104DD0003E81F0E8AF16FCE0BF0654F49A9DA001B6
:104DE0009B9D500D1124440F551F5A01A80EB11C54
:104DF000D9018D91BE83AD8380538A3040F314FF77
:104E000003C0B194A194B108EA0CFB1C91CF259189
:104E100035914591549169817A818B819C810E9461
:104E20007F1F69837A838B839C83E01AF10A8981CF
:104E30009A81AB81BC81ED81FE81E016F1063CF7E1
:104E40003497FE83ED8315950795EC15FD0579F7ED
:104E50008A2F880F8B2F881F8F3F59F020E030E07A
:104E6000A90169817A818B819C810E94221E811116
:104E7000ECCE82E290E09093050280930402E5CEAE
:104E80002FE930E03E832D8393CF80E090E0A0ECCB
:104E9000BFE789839A83AB83BC83D7CE283008F0E1
:104EA00027E03327DA01990F311D87FD91600096C5
:104EB0006105710539F432602E5F3D9330E32A9528
:104EC000E1F708959F3F30F080387105610509F0E2
:104ED0003C5F3C5F3D93913008F08068911DDF930B
:104EE000CF931F930F93FF92EF92192F987F969570
:104EF000E92F96959695E90FFF27E350FF4F9927E5
:104F00003327EE24FF24A701E701059008940794B6
:104F100028F4360FE71EF81E491F511D660F771F34
:104F2000881F991F0694A1F70590079428F4E70EAF
:104F3000F81E491F561FC11D770F881F991F661F36
:104F40000694A1F70590079428F4F80E491F561F00
:104F5000C71FD11D880F991F661F771F0694A1F7E1
:104F60000590079420F4490F561FC71FD81F990FAB
:104F7000661F771F881F0694A9F7849110951770F4
:104F800041F0D695C79557954795F794E7941A95AC
:104F9000C1F7E3EAF0E068941590159135916591B9
:104FA000959105907FE27395E118F10A430B560B3A
:104FB000C90BD009C0F7E10CF11E431F561FC91FD2
:104FC000D01D7EF4703311F48A95E6CFE894015039
:104FD00030F0080F0AF40027021708F4202F239559
:104FE000022F7A3328F079E37D932A95E9F710C0F0
:104FF0007D932A9589F60694979567953795179529
:105000001794E118F10A430B560BC90BD00998F01D
:1050100023957E9173957A3308F070E37C93201387
:10502000B8F77E9170617D9330F0839571E37D9345
:1050300070E32A95E1F71124EF90FF900F911F91F3
:10504000CF91DF91992787FD90950895992788271B
:105050000895FB01DC014150504088F08D9181346E
:105060001CF08B350CF4805E659161341CF06B355F
:105070000CF4605E861B611171F3990B0895881B17
:10508000FCCFDC0101C06D9341505040E0F7089522
:10509000DC01FC01672F71917723E1F7329704C09F
:1050A0007C916D9370836291AE17BF07C8F308952A
:1050B000B7FF0C94951D0E94951D821B930B0895BC
:1050C0002F923F924F925F926F927F928F929F9218
:1050D000AF92BF92CF92DF92EF92FF920F931F9306
:1050E000CF93DF93CDB7DEB7CA1BDB0B0FB6F894B7
:1050F000DEBF0FBECDBF09942A88398848885F84F7
:105100006E847D848C849B84AA84B984C884DF8067
:10511000EE80FD800C811B81AA81B981CE0FD11D4B
:105120000FB6F894DEBF0FBECDBFED010895F89421
:02513000FFCFAF
:10513200FF6D186D1801000006022000010000003A
:1051420000000000001402C603B501F4018801A1A9
:1051520001930100000000E5020D0A006E616E007D
:10516200696E66006F766600000000002701C603C4
:04517200241D271DB4
:00000001FF
